{
    "txid": "a40a20692abdc4f94faf1638a90075a8413cd25334efd304eaa77e4c8a645793",
    "hash": "72c1ed85d4b303a26a57605b679da08390404e4eee4eeee012f003d037239aa8",
    "version": 1,
    "size": 371,
    "vsize": 209,
    "weight": 836,
    "locktime": 0,
    "vin": [
        {
            "txid": "6eb2064e280d8c41719ad15a1021a13fd7128733de72fcb345d80ab66ddc54a6",
            "vout": 0,
            "scriptSig": {
                "asm": "",
                "hex": ""
            },
            "txinwitness": [
                "304402205d583923a0011add1e04aded3d345c6852f2527b3b707c5bf97b55202b3335950220609e77a5cac8ef7acf3c1d20545cb11f9092a69fb96c21004e5e15929ddf88b501",
                "03d5b84158fa745251860ff9f6d3be8363601fa73748343c19486b36cdb18a95fa"
            ],
            "sequence": 4294967291
        },
        {
            "txid": "73bd28ee5ebadeb28972c884baadf29aa98dcc2891c19588bf3c71adb3acdf15",
            "vout": 3,
            "scriptSig": {
                "asm": "",
                "hex": ""
            },
            "txinwitness": [
                "3044022021933bf0982b912582c001627fe645b753deaa20d075e04cacd3dad5f225606b022075320685de23ec2b4f5fe646b2d0c35cff7229928c6609c513a645231bf4ac5b01",
                "03d5b84158fa745251860ff9f6d3be8363601fa73748343c19486b36cdb18a95fa"
            ],
            "sequence": 4294967292
        }
    ],
    "vout": [
        {
            "value": 0.045,
            "n": 0,
            "scriptPubKey": {
                "asm": "OP_HASH160 9f8255c1f680893122697707be1241e7db1fc168 OP_EQUAL",
                "hex": "a9149f8255c1f680893122697707be1241e7db1fc16887",
                "reqSigs": 1,
                "type": "scripthash",
                "addresses": [
                    "3GERVsvFsiFpeHeLajfXMcRMRwVUp9wnKj"
                ]
            }
        },
        {
            "value": 0.00158732,
            "n": 1,
            "scriptPubKey": {
                "asm": "0 fca58b8af5d121852f965e963ee806e1069905c2",
                "hex": "0014fca58b8af5d121852f965e963ee806e1069905c2",
                "reqSigs": 1,
                "type": "witness_v0_keyhash",
                "addresses": [
                    "bc1qljjchzh46ysc2tukt6tra6qxuyrfjpwzks2e22"
                ]
            }
        }
    ],
    "hex": "01000000000102a654dc6db60ad845b3fc72de338712d73fa121105ad19a71418c0d284e06b26e0000000000fbffffff15dfacb3ad713cbf8895c19128cc8da99af2adba84c87289b2deba5eee28bd730300000000fcffffff0220aa44000000000017a9149f8255c1f680893122697707be1241e7db1fc168870c6c020000000000160014fca58b8af5d121852f965e963ee806e1069905c20247304402205d583923a0011add1e04aded3d345c6852f2527b3b707c5bf97b55202b3335950220609e77a5cac8ef7acf3c1d20545cb11f9092a69fb96c21004e5e15929ddf88b5012103d5b84158fa745251860ff9f6d3be8363601fa73748343c19486b36cdb18a95fa02473044022021933bf0982b912582c001627fe645b753deaa20d075e04cacd3dad5f225606b022075320685de23ec2b4f5fe646b2d0c35cff7229928c6609c513a645231bf4ac5b012103d5b84158fa745251860ff9f6d3be8363601fa73748343c19486b36cdb18a95fa00000000",
    "blockhash": "0000000000000000000d459e6ac961faac4eb72e4d4eaedf0bf6997dfb1b42eb",
    "confirmations": 3,
    "time": 1575151464,
    "blocktime": 1575151464
}