{
    "txid": "e028625516b04e9652c156c45483779a767e9e8b73da126140e55a53c22cd6ab",
    "hash": "fe2bbdcec78895c8ecc4f206a2be31654721d3b752cf6c630c79265733718482",
    "version": 1,
    "size": 414,
    "vsize": 224,
    "weight": 894,
    "locktime": 0,
    "vin": [
        {
            "txid": "d11eaec15c5090f87008803b3edef900fcb581b2842778687069cf7c3ac4a4dc",
            "vout": 1,
            "scriptSig": {
                "asm": "",
                "hex": ""
            },
            "txinwitness": [
                "",
                "30440220132c0a8e96742ad8fe23bd77fd5646c8f227baaaa43f0bc84cc610f562bffaa2022071100f27280c36e3421d50d9be5e87e12cc0f742c2e9a4957ad9773cc776d7d001",
                "3044022054e768d8bbd05ed384a0b362a7bcacd7a4e1c51ce0c758da8d54ef7308af1ac402205d645e8c96d63819c2759f6de95f6372d8f5d9168a92ea512a304faa28837a1f01",
                "52210375e00eb72e29da82b89367947f29ef34afb75e8654f6ea368e0acdfd92976b7c2103a1b26313f430c4b15bb1fdce663207659d8cac749a0e53d70eff01874496feff2103c96d495bfdd5ba4145e3e046fee45e84a8a48ad05bd8dbb395c011a32cf9f88053ae"
            ],
            "sequence": 4294967295
        }
    ],
    "vout": [
        {
            "value": 0.06,
            "n": 0,
            "scriptPubKey": {
                "asm": "OP_HASH160 c462d9a12ba8739c3080df25d302f49c2326bb2b OP_EQUAL",
                "hex": "a914c462d9a12ba8739c3080df25d302f49c2326bb2b87",
                "reqSigs": 1,
                "type": "scripthash",
                "addresses": [
                    "3KbQnNMQHdUe53bc5DoJke6Ftz6MKyxn15"
                ]
            }
        },
        {
            "value": 0.4005,
            "n": 1,
            "scriptPubKey": {
                "asm": "OP_DUP OP_HASH160 26ec86b2fbfe054f0a4c8f9f875229bdb5707010 OP_EQUALVERIFY OP_CHECKSIG",
                "hex": "76a91426ec86b2fbfe054f0a4c8f9f875229bdb570701088ac",
                "reqSigs": 1,
                "type": "pubkeyhash",
                "addresses": [
                    "14Yp2R7x3AdqNgc4vA32qPYgZSQiHSigUZ"
                ]
            }
        },
        {
            "value": 4.50621158,
            "n": 2,
            "scriptPubKey": {
                "asm": "0 701a8d401c84fb13e6baf169d59684e17abd9fa216c8cc5b9fc63d622ff8c58d",
                "hex": "0020701a8d401c84fb13e6baf169d59684e17abd9fa216c8cc5b9fc63d622ff8c58d",
                "reqSigs": 1,
                "type": "witness_v0_scripthash",
                "addresses": [
                    "bc1qwqdg6squsna38e46795at95yu9atm8azzmyvckulcc7kytlcckxswvvzej"
                ]
            }
        }
    ],
    "hex": "01000000000101dca4c43a7ccf697068782784b281b5fc00f9de3e3b800870f890505cc1ae1ed10100000000ffffffff03808d5b000000000017a914c462d9a12ba8739c3080df25d302f49c2326bb2b87501d6302000000001976a91426ec86b2fbfe054f0a4c8f9f875229bdb570701088ace6eedb1a00000000220020701a8d401c84fb13e6baf169d59684e17abd9fa216c8cc5b9fc63d622ff8c58d04004730440220132c0a8e96742ad8fe23bd77fd5646c8f227baaaa43f0bc84cc610f562bffaa2022071100f27280c36e3421d50d9be5e87e12cc0f742c2e9a4957ad9773cc776d7d001473044022054e768d8bbd05ed384a0b362a7bcacd7a4e1c51ce0c758da8d54ef7308af1ac402205d645e8c96d63819c2759f6de95f6372d8f5d9168a92ea512a304faa28837a1f016952210375e00eb72e29da82b89367947f29ef34afb75e8654f6ea368e0acdfd92976b7c2103a1b26313f430c4b15bb1fdce663207659d8cac749a0e53d70eff01874496feff2103c96d495bfdd5ba4145e3e046fee45e84a8a48ad05bd8dbb395c011a32cf9f88053ae00000000",
    "blockhash": "0000000000000000000d459e6ac961faac4eb72e4d4eaedf0bf6997dfb1b42eb",
    "confirmations": 2,
    "time": 1575151464,
    "blocktime": 1575151464
}