{
    "result": {
        "txid": "f24bfb338e80f9828f6df5660a0071d305a7e29248c6eefe216c2fb8df01e42e",
        "hash": "c4eaf7768ab1cd948db83b393f34fa042af792ef9ba07c6821ae75f7365bceb7",
        "version": 2,
        "size": 654,
        "vsize": 411,
        "weight": 1644,
        "locktime": 605247,
        "vin": [
            {
                "txid": "09fa004fe78e3ce41c46eaed6256204fe7da1e5b3b32ca21ebdacde5699f965e",
                "vout": 0,
                "scriptSig": {
                    "asm": "00142f039486467070026b4526c6d9693e9a873512d6",
                    "hex": "1600142f039486467070026b4526c6d9693e9a873512d6"
                },
                "txinwitness": [
                    "304502210086f2c9128f8b33c318cbefc98d771d5f212f65a19bfc745b7b1beabbba4a6dba02206f25f0031470c31da0ebf2c607991abe927e7539336177aed2b1743eb4512ac901",
                    "0222e346f6febeb00dab048c5bb2e1380dca50f4003f6ae0433b9f93cde5f5e1f6"
                ],
                "sequence": 4294967294
            },
            {
                "txid": "03774e428054b479af308e7a475de42087c5a88d124f871aaf2aea868e1a616f",
                "vout": 0,
                "scriptSig": {
                    "asm": "00145a2748bdf504dc8e640714c1020b5104c90e8375",
                    "hex": "1600145a2748bdf504dc8e640714c1020b5104c90e8375"
                },
                "txinwitness": [
                    "3044022032d70733adb110cafc0361e729159113705dfff722edda2497f84a95a30cd2a502204a02cf4a95a2496e80daed86987327b781d270f97d24c43d80378ce3a9b79a9f01",
                    "0279219899dbdb2dd6980b6663253da53288afef6dfacaf81d1abe2e43e87b1687"
                ],
                "sequence": 4294967294
            },
            {
                "txid": "1d1dd60dbd7a7df3119c286283b735a671457d957bb1cf0cc599930c40ea0ad7",
                "vout": 3,
                "scriptSig": {
                    "asm": "00148d55db553d49dc1b1f8835eb1dc5140a30b1b6eb",
                    "hex": "1600148d55db553d49dc1b1f8835eb1dc5140a30b1b6eb"
                },
                "txinwitness": [
                    "304402202f0d3afa2766633e0a2f9a377a1f486f2504c803a9266e91f3c92f1824bee34302205b47d15570f43be6a1f065cfc0e850bed09bad299d3e83bec2ae4198abb0349a01",
                    "03c04a5a61c86815f1e1d9a5fd598d9462e996aeb5b6bab5ff4b6f3d1576a6c29d"
                ],
                "sequence": 4294967294
            }
        ],
        "vout": [
            {
                "value": 0.207,
                "n": 0,
                "scriptPubKey": {
                    "asm": "OP_HASH160 32fd6f0f99a489200696e57e95c6f5a542d654ae OP_EQUAL",
                    "hex": "a91432fd6f0f99a489200696e57e95c6f5a542d654ae87",
                    "reqSigs": 1,
                    "type": "scripthash",
                    "addresses": [
                        "36LdK2Vn1Fb6fWQY37VCRCoaYSyGYzMQzS"
                    ]
                }
            },
            {
                "value": 0.00917778,
                "n": 1,
                "scriptPubKey": {
                    "asm": "OP_HASH160 dad76c0cf75bd02fce79b6508813222eec8e01d0 OP_EQUAL",
                    "hex": "a914dad76c0cf75bd02fce79b6508813222eec8e01d087",
                    "reqSigs": 1,
                    "type": "scripthash",
                    "addresses": [
                        "3Me9J9haTd1R8u9JShDDH8a2ovNVLE2NZ1"
                    ]
                }
            },
            {
                "value": 0.06136,
                "n": 2,
                "scriptPubKey": {
                    "asm": "OP_HASH160 76377d80a8e92446c882a076f877303bc9452e36 OP_EQUAL",
                    "hex": "a91476377d80a8e92446c882a076f877303bc9452e3687",
                    "reqSigs": 1,
                    "type": "scripthash",
                    "addresses": [
                        "3CU68i75NDLjnYhwnRCTaNn9mYpnLUR3mw"
                    ]
                }
            },
            {
                "value": 0.105742,
                "n": 3,
                "scriptPubKey": {
                    "asm": "OP_HASH160 9c0d2266088b9637ae526fe12d585401124f6f2c OP_EQUAL",
                    "hex": "a9149c0d2266088b9637ae526fe12d585401124f6f2c87",
                    "reqSigs": 1,
                    "type": "scripthash",
                    "addresses": [
                        "3Fv954WQymvz1aGTGnp5xih2Dg7byN2QLY"
                    ]
                }
            }
        ],
        "hex": "020000000001035e969f69e5cddaeb21ca323b5b1edae74f205662edea461ce43c8ee74f00fa0900000000171600142f039486467070026b4526c6d9693e9a873512d6feffffff6f611a8e86ea2aaf1a874f128da8c58720e45d477a8e30af79b45480424e770300000000171600145a2748bdf504dc8e640714c1020b5104c90e8375feffffffd70aea400c9399c50ccfb17b957d4571a635b78362289c11f37d7abd0dd61d1d03000000171600148d55db553d49dc1b1f8835eb1dc5140a30b1b6ebfeffffff0460db3b010000000017a91432fd6f0f99a489200696e57e95c6f5a542d654ae8712010e000000000017a914dad76c0cf75bd02fce79b6508813222eec8e01d087c0a05d000000000017a91476377d80a8e92446c882a076f877303bc9452e36877859a1000000000017a9149c0d2266088b9637ae526fe12d585401124f6f2c870248304502210086f2c9128f8b33c318cbefc98d771d5f212f65a19bfc745b7b1beabbba4a6dba02206f25f0031470c31da0ebf2c607991abe927e7539336177aed2b1743eb4512ac901210222e346f6febeb00dab048c5bb2e1380dca50f4003f6ae0433b9f93cde5f5e1f602473044022032d70733adb110cafc0361e729159113705dfff722edda2497f84a95a30cd2a502204a02cf4a95a2496e80daed86987327b781d270f97d24c43d80378ce3a9b79a9f01210279219899dbdb2dd6980b6663253da53288afef6dfacaf81d1abe2e43e87b16870247304402202f0d3afa2766633e0a2f9a377a1f486f2504c803a9266e91f3c92f1824bee34302205b47d15570f43be6a1f065cfc0e850bed09bad299d3e83bec2ae4198abb0349a012103c04a5a61c86815f1e1d9a5fd598d9462e996aeb5b6bab5ff4b6f3d1576a6c29d3f3c0900",
        "blockhash": "000000000000000000122efbf529b4d2713572f43222392c5aa86c890a929d85",
        "confirmations": 12,
        "time": 1574625520,
        "blocktime": 1574625520
    },
    "error": null,
    "id": null
}