{
    "result": {
        "txid": "74ec0366a895e49bf14b0874c3a58d56db30525708a9185741175988237ff9d0",
        "hash": "78512ff50dcab264749e174240465311c3e252ddf8f92056a83cd87f2f50d301",
        "version": 1,
        "size": 354,
        "vsize": 272,
        "weight": 1086,
        "locktime": 0,
        "vin": [
            {
                "txid": "d2e88324e768b35a1e67ebf408cd7e6e57bec40f818d7e12ca65b23cc2756ffc",
                "vout": 3,
                "scriptSig": {
                    "asm": "",
                    "hex": ""
                },
                "txinwitness": [
                    "3045022100dd1b7f6df1110b64dfa6e133ad8423a3bdb2ed93835fa04ba78b9ed601b669930220582992f07d6e17bb981c76535412e6e8bef6a70de905cada3de93c7118d500c901",
                    "0244934d36be39f5d03781ffe38de70de493ef32e49942634b930f188d1bdb4706"
                ],
                "sequence": 4294967295
            }
        ],
        "vout": [
            {
                "value": 0.0010352,
                "n": 0,
                "scriptPubKey": {
                    "asm": "OP_DUP OP_HASH160 e4566a17599bf4a461fcb3227dc330721abf39ba OP_EQUALVERIFY OP_CHECKSIG",
                    "hex": "76a914e4566a17599bf4a461fcb3227dc330721abf39ba88ac",
                    "reqSigs": 1,
                    "type": "pubkeyhash",
                    "addresses": [
                        "1MpLav9pKgzCCLdNKGiWBB4X9BeTW1n55C"
                    ]
                }
            },
            {
                "value": 0.00471187,
                "n": 1,
                "scriptPubKey": {
                    "asm": "OP_HASH160 2c2e2778c6aef4a944b8c958247c17fe0ded2d7d OP_EQUAL",
                    "hex": "a9142c2e2778c6aef4a944b8c958247c17fe0ded2d7d87",
                    "reqSigs": 1,
                    "type": "scripthash",
                    "addresses": [
                        "35icwqHp4uwLWqzz3SMmR5mYetp9bibRAs"
                    ]
                }
            },
            {
                "value": 0.01059983,
                "n": 2,
                "scriptPubKey": {
                    "asm": "OP_HASH160 a5b6ee0a02901312e19d113e102eab28b722c4fb OP_EQUAL",
                    "hex": "a914a5b6ee0a02901312e19d113e102eab28b722c4fb87",
                    "reqSigs": 1,
                    "type": "scripthash",
                    "addresses": [
                        "3GoEZPDgg1n1nFdZt35JGrX8L3ctLgavvy"
                    ]
                }
            },
            {
                "value": 0.01519659,
                "n": 3,
                "scriptPubKey": {
                    "asm": "OP_HASH160 7ab7246c9460a2424026f32dba3ea6e2d19a1b1c OP_EQUAL",
                    "hex": "a9147ab7246c9460a2424026f32dba3ea6e2d19a1b1c87",
                    "reqSigs": 1,
                    "type": "scripthash",
                    "addresses": [
                        "3Cssktv22Y9ZWKJ8gziUiFsbkxbnNrhUAq"
                    ]
                }
            },
            {
                "value": 0.02981805,
                "n": 4,
                "scriptPubKey": {
                    "asm": "OP_HASH160 513f90bb1559050e5ebeb5ff4c3b4c704306c7b8 OP_EQUAL",
                    "hex": "a914513f90bb1559050e5ebeb5ff4c3b4c704306c7b887",
                    "reqSigs": 1,
                    "type": "scripthash",
                    "addresses": [
                        "396cogQk3M1G1KYocvxqLEpV3Mnf288Psw"
                    ]
                }
            },
            {
                "value": 0.40723731,
                "n": 5,
                "scriptPubKey": {
                    "asm": "0 4bda59940b209975428af91ce26f897c4bade4be",
                    "hex": "00144bda59940b209975428af91ce26f897c4bade4be",
                    "reqSigs": 1,
                    "type": "witness_v0_keyhash",
                    "addresses": [
                        "bc1qf0d9n9qtyzvh2s52lywwymuf0396me97gq9afj"
                    ]
                }
            }
        ],
        "hex": "01000000000101fc6f75c23cb265ca127e8d810fc4be576e7ecd08f4eb671e5ab368e72483e8d20300000000ffffffff0660940100000000001976a914e4566a17599bf4a461fcb3227dc330721abf39ba88ac933007000000000017a9142c2e2778c6aef4a944b8c958247c17fe0ded2d7d878f2c10000000000017a914a5b6ee0a02901312e19d113e102eab28b722c4fb872b3017000000000017a9147ab7246c9460a2424026f32dba3ea6e2d19a1b1c87ad7f2d000000000017a914513f90bb1559050e5ebeb5ff4c3b4c704306c7b88713656d02000000001600144bda59940b209975428af91ce26f897c4bade4be02483045022100dd1b7f6df1110b64dfa6e133ad8423a3bdb2ed93835fa04ba78b9ed601b669930220582992f07d6e17bb981c76535412e6e8bef6a70de905cada3de93c7118d500c901210244934d36be39f5d03781ffe38de70de493ef32e49942634b930f188d1bdb470600000000",
        "blockhash": "00000000000000000010d0e1fe02772d4526b151b172a90c7e33b2c01e3c263b",
        "confirmations": 6,
        "time": 1574627654,
        "blocktime": 1574627654
    },
    "error": null,
    "id": null
}