{
    "result": {
        "txid": "b7bd5ac0c8a2ab5df26c86630d3e513755450c50ed6600a47eae91e58edc07d4",
        "hash": "a474443ee2bff02e56d40d941d0ad4c9198bee859f49c9984035ccc70853fbeb",
        "version": 2,
        "size": 420,
        "vsize": 258,
        "weight": 1032,
        "locktime": 0,
        "vin": [
            {
                "txid": "c4da99bd0ff2b9560ff783a46ca3787783bb308eb9b66f9839f4e41a151ab181",
                "vout": 1,
                "scriptSig": {
                    "asm": "0014f7bae6ee31d59e79da8e857fb63429637f9e0d57",
                    "hex": "160014f7bae6ee31d59e79da8e857fb63429637f9e0d57"
                },
                "txinwitness": [
                    "30440220750dad945688f6da2f70f90c1258eb0d17b984fddca5576cee0f715e0dcd38f4022023f77ee41537cd31b771fbe0acf6a0a085cad3bcd6c68c7f69d87f2c7c8a031901",
                    "034ed258709969db6507e5b86568e6c57d903917034a853fd2f6b7604443431518"
                ],
                "sequence": 4294967295
            },
            {
                "txid": "9b42a855df97dfb05677bf00fadac781cb84570eeb98a00b64a0d3be55d6fd04",
                "vout": 0,
                "scriptSig": {
                    "asm": "0014ec4bed9e75e5a2703f477703bc226ab784206698",
                    "hex": "160014ec4bed9e75e5a2703f477703bc226ab784206698"
                },
                "txinwitness": [
                    "304402201bc5befe1df374bf7d2bfa3a327207e76a685faac2e7e338b86fdabbfc7bb4c702200d6413628f673ad4a096af877a433ba43a9b0f6146c6253233129b1f1992808101",
                    "0298ab7dac0f6589d4b214ecf977c0f6cab5246eb14a658854c4dfa122705f5f1d"
                ],
                "sequence": 4294967295
            }
        ],
        "vout": [
            {
                "value": 0.03917,
                "n": 0,
                "scriptPubKey": {
                    "asm": "OP_DUP OP_HASH160 0e3452bf79e4ffffef27dbfddab7c25bb63a9510 OP_EQUALVERIFY OP_CHECKSIG",
                    "hex": "76a9140e3452bf79e4ffffef27dbfddab7c25bb63a951088ac",
                    "reqSigs": 1,
                    "type": "pubkeyhash",
                    "addresses": [
                        "12J79Aj3pAZJh7VRL9ugBXafCBxJpmzZ3N"
                    ]
                }
            },
            {
                "value": 0.04115119,
                "n": 1,
                "scriptPubKey": {
                    "asm": "OP_HASH160 f03e6bf9b389bbd5d5669ff55c4dba30de995535 OP_EQUAL",
                    "hex": "a914f03e6bf9b389bbd5d5669ff55c4dba30de99553587",
                    "reqSigs": 1,
                    "type": "scripthash",
                    "addresses": [
                        "3PbJsixkjmjzsjCpi4xAYxxaL5NnxrbF9B"
                    ]
                }
            }
        ],
        "hex": "0200000000010281b11a151ae4f439986fb6b98e30bb837778a36ca483f70f56b9f20fbd99dac40100000017160014f7bae6ee31d59e79da8e857fb63429637f9e0d57ffffffff04fdd655bed3a0640ba098eb0e5784cb81c7dafa00bf7756b0df97df55a8429b0000000017160014ec4bed9e75e5a2703f477703bc226ab784206698ffffffff02c8c43b00000000001976a9140e3452bf79e4ffffef27dbfddab7c25bb63a951088acafca3e000000000017a914f03e6bf9b389bbd5d5669ff55c4dba30de99553587024730440220750dad945688f6da2f70f90c1258eb0d17b984fddca5576cee0f715e0dcd38f4022023f77ee41537cd31b771fbe0acf6a0a085cad3bcd6c68c7f69d87f2c7c8a03190121034ed258709969db6507e5b86568e6c57d903917034a853fd2f6b76044434315180247304402201bc5befe1df374bf7d2bfa3a327207e76a685faac2e7e338b86fdabbfc7bb4c702200d6413628f673ad4a096af877a433ba43a9b0f6146c6253233129b1f1992808101210298ab7dac0f6589d4b214ecf977c0f6cab5246eb14a658854c4dfa122705f5f1d00000000",
        "blockhash": "0000000000000000000681f7270cdbbc49c0c27d9ce0064dcb40cf0c4b5f0129",
        "confirmations": 63,
        "time": 1574585344,
        "blocktime": 1574585344
    },
    "error": null,
    "id": null
}